:02000002B0004C
:1040000000400B00F67D0D000000060017000502C1
:08401000040144160000000049
:04401800888F0B0082
:10401C0081F0004102E000BF83F0004330B54FEA6D
:10402C0041044FEA430594EA050F08BF90EA020FDA
:10403C001FBF54EA000C55EA020C7FEA645C7FEA6D
:10404C00655C00F0E2804FEA5454D4EB5555B8BF90
:10405C006D420CDD2C4480EA020281EA030382EA01
:10406C00000083EA010180EA020281EA0303362D93
:10407C0088BF30BD11F0004F4FEA01314FF4801C66
:10408C004CEA113102D0404261EB410113F0004F78
:10409C004FEA03334CEA133302D0524263EB43032F
:1040AC0094EA050F00F0A780A4F10104D5F1200ECD
:1040BC000DDB02FA0EFC22FA05F2801841F1000128
:1040CC0003FA0EF2801843FA05F359410EE0A5F1FC
:1040DC0020050EF1200E012A03FA0EFC28BF4CF02D
:1040EC00020C43FA05F3C01851EBE37101F00045E3
:1040FC0007D54FF0000EDCF1000C7EEB00006EEBF0
:10410C000101B1F5801F1BD3B1F5001F0CD3490879
:10411C005FEA30004FEA3C0C04F101044FEA4452D0
:10412C0012F5800F80F09A80BCF1004F08BF5FEA57
:10413C00500C50F1000041EB045141EA050130BD37
:10414C005FEA4C0C404141EB0101013C28BFB1F549
:10415C00801FE9D291F0000F04BF01460020B1FA94
:10416C0081F308BF2033A3F10B03B3F120020CDA67
:10417C000C3208DD02F1140CC2F10C0201FA0CF045
:10418C0021FA02F10CE002F11402D8BFC2F1200CAA
:10419C0001FA02F120FA0CFCDCBF41EA0C01904060
:1041AC00E41AA2BF01EB0451294330BD6FEA0404A9
:1041BC001F3C1CDA0C340EDC04F11404C4F1200294
:1041CC0020FA04F001FA02F340EA030021FA04F3A6
:1041DC0045EA030130BDC4F10C04C4F1200220FAFD
:1041EC0002F001FA04F340EA0300294630BD21FA3B
:1041FC0004F0294630BD94F0000F83F4801306BF01
:10420C0081F480110134013D4EE77FEA645C18BFF4
:10421C007FEA655C29D094EA050F08BF90EA020F8B
:10422C0005D054EA000C04BF1946104630BD91EA83
:10423C00030F1EBF0021002030BD5FEA545C05D186
:10424C004000494128BF41F0004130BD14F58004C5
:10425C003CBF01F5801130BD01F0004545F0FE4139
:10426C0041F470014FF0000030BD7FEA645C1ABF6E
:10427C00194610467FEA655C1CBF0B46024650EAA5
:10428C00013406BF52EA033591EA030F41F40021D1
:10429C0030BD00BF90F0000F04BF0021704730B557
:1042AC004FF4806404F132044FF000054FF000012C
:1042BC0050E700BF90F0000F04BF0021704730B5ED
:1042CC004FF4806404F1320410F0004548BF4042C2
:1042DC004FF000013EE700BF42004FEAE2014FEA17
:1042EC0031014FEA02701FBF12F07F4393F07F4FF2
:1042FC0081F06051704732F07F4208BF704793F0F5
:10430C007F4F04BF41F40021704730B54FF4607407
:10431C0001F0004521F000411CE700BF50EA01020A
:10432C0008BF704730B54FF000050AE050EA0102B3
:10433C0008BF704730B511F0004502D5404261EB23
:10434C0041014FF4806404F132045FEA915C3FF464
:10435C00D8AE4FF003025FEADC0C18BF03325FEA01
:10436C00DC0C18BF033202EBDC02C2F1200300FAB2
:10437C0003FC20FA02F001FA03FE40EA0E0021FAD7
:10438C0002F11444BDE600BF70B54FF0FF0C4CF4C5
:10439C00E06C1CEA11541DBF1CEA135594EA0C0F77
:1043AC0095EA0C0F00F0DEF82C4481EA030621EAB2
:1043BC004C5123EA4C5350EA013518BF52EA0335ED
:1043CC0041F4801143F4801338D0A0FB02CE4FF09F
:1043DC000005E1FB02E506F00042E0FB03E54FF0CF
:1043EC000006E1FB03569CF0000F18BF4EF0010EC7
:1043FC00A4F1FF04B6F5007F64F5407404D25FEAC3
:10440C004E0E6D4146EB060642EAC62141EA555175
:10441C004FEAC52040EA5E504FEACE2EB4F1FD0CB7
:10442C0088BFBCF5E06F1ED8BEF1004F08BF5FEA35
:10443C00500E50F1000041EB045170BD06F00046E7
:10444C0046EA010140EA020081EA0301B4EB5C0494
:10445C00C2BFD4EB0C0541EA045170BD41F480118C
:10446C004FF0000E013C00F3AB8014F1360FDEBFB1
:10447C00002001F0004170BDC4F10004203C35DA8D
:10448C000C341BDC04F11404C4F1200500FA05F310
:10449C0020FA04F001FA05F240EA020001F00042B1
:1044AC0021F0004110EBD37021FA04F642EB060127
:1044BC005EEA430E08BF20EAD37070BDC4F10C0451
:1044CC00C4F1200500FA04F320FA05F001FA04F215
:1044DC0040EA020001F0004110EBD37041F1000101
:1044EC005EEA430E08BF20EAD37070BDC4F120050C
:1044FC0000FA05F24EEA020E20FA04F301FA05F274
:10450C0043EA020321FA04F001F0004121FA04F21B
:10451C0020EA020000EBD3705EEA430E08BF20EAEB
:10452C00D37070BD94F0000F0FD101F00046400025
:10453C0041EB010111F4801F08BF013CF7D041EAA7
:10454C00060195F0000F18BF704703F000465200AB
:10455C0043EB030313F4801F08BF013DF7D043EA7C
:10456C000603704794EA0C0F0CEA135518BF95EA32
:10457C000C0F0CD050EA410618BF52EA4306D1D1B9
:10458C0081EA030101F000414FF0000070BD50EAD8
:10459C00410606BF1046194652EA430619D094EA62
:1045AC000C0F02D150EA013613D195EA0C0F05D14C
:1045BC0052EA03361CBF104619460AD181EA0301A0
:1045CC0001F0004141F0FE4141F470014FF0000058
:1045DC0070BD41F0FE4141F4780170BD70B54FF0F3
:1045EC00FF0C4CF4E06C1CEA11541DBF1CEA135573
:1045FC0094EA0C0F95EA0C0F00F0A7F8A4EB050455
:10460C0081EA030E52EA03354FEA013100F088804B
:10461C004FEA03334FF0805545EA131343EA126314
:10462C004FEA022245EA111545EA10654FEA0026C9
:10463C000EF000419D4208BF964244F1FD0404F582
:10464C00407402D25B084FEA3202B61A65EB0305DE
:10465C005B084FEA32024FF480104FF4002CB6EB9B
:10466C00020E75EB030E22BFB61A754640EA0C001B
:10467C005B084FEA3202B6EB020E75EB030E22BF5B
:10468C00B61A754640EA5C005B084FEA3202B6EB9C
:10469C00020E75EB030E22BFB61A754640EA9C005B
:1046AC005B084FEA3202B6EB020E75EB030E22BF2B
:1046BC00B61A754640EADC0055EA060E18D04FEAE9
:1046CC00051545EA16754FEA06164FEAC30343EA89
:1046DC0052734FEAC2025FEA1C1CC0D111F4801F56
:1046EC000BD141EA00014FF000004FF0004CB6E74F
:1046FC0011F4801F04BF01430020B4F1FD0C88BFEE
:10470C00BCF5E06F3FF6AFAEB5EB030C04BFB6EBF8
:10471C00020C5FEA500C50F1000041EB045170BDEB
:10472C000EF0004E4EEA113114EB5C04C2BFD4EB18
:10473C000C0541EA045170BD41F480114FF0000E9C
:10474C00013C90E645EA060E8DE60CEA135594EA18
:10475C000C0F08BF95EA0C0F3FF43BAF94EA0C0F1B
:10476C000AD150EA01347FF434AF95EA0C0F7FF490
:10477C0025AF104619462CE795EA0C0F06D152EAE4
:10478C0003353FF4FDAE1046194622E750EA4106C8
:10479C0018BF52EA43067FF4C5AE50EA41047FF4D9
:1047AC000DAF52EA43057FF4EBAE12E74FF0FF3C3E
:1047BC0006E000BF4FF0010C02E000BF4FF0010C0F
:1047CC004DF804CD4FEA410C7FEA6C5C4FEA430C88
:1047DC0018BF7FEA6C5C1BD001B050EA410C0CBFD7
:1047EC0052EA430C91EA030F02BF90EA020F002039
:1047FC00704710F1000F91EA030F58BF994208BFA0
:10480C0090422CBFD8176FEAE37040F0010070475C
:10481C004FEA410C7FEA6C5C02D150EA013C07D1B3
:10482C004FEA430C7FEA6C5CD6D152EA033CD3D0FE
:10483C005DF8040B704700BF8446104662468C46F8
:10484C001946634600E000BF01B5FFF7B7FF00282B
:10485C0048BF10F1000F01BD4DF808EDFFF7F4FF54
:10486C000CBF012000205DF808FB00BF4DF808EDDF
:10487C00FFF7EAFF34BF012000205DF808FB00BF02
:10488C004DF808EDFFF7E0FF94BF012000205DF824
:10489C0008FB00BF4DF808EDFFF7CEFF94BF0120D9
:1048AC0000205DF808FB00BF4DF808EDFFF7C4FFD2
:1048BC0034BF012000205DF808FB00BF4FEA410C1B
:1048CC007FEA6C5C02D150EA013C0AD14FEA430CFE
:1048DC007FEA6C5C02D152EA033C02D14FF000003B
:1048EC0070474FF0010070474FEA410212F5001279
:1048FC0015D211D56FF47873B3EB625212D94FEA1B
:10490C00C12343F0004343EA505311F0004F23FA04
:10491C0002F018BF404270474FF00000704750EA59
:10492C00013005D111F0004008BF6FF00040704716
:10493C004FF00000704700BF4A0011D212F5001270
:10494C0011D20DD56FF47873B3EB62520ED44FEADB
:10495C00C12343F0004343EA505323FA02F070475B
:10496C004FF00000704750EA013002D14FF0FF3099
:10497C0070474FF000007047034613F8012B002AD4
:10498C00FBD1181A0138704709480A49884208B502
:10499C0005D0094A824202D0121A04F039FA0748AB
:1049AC00074A0021121A04F041FA014808BD00BF61
:1049BC00707003205C7D0D00DC700320DC70032024
:1049CC00FCE7032070B5074E074C03F037FEA41B21
:1049DC00A4080025AC4200D170BD56F8043B9847A2
:1049EC000135F7E7147D0D00387D0D0001F040BB5B
:1049FC0008B501F08BF8BDE8084003F0D7BD03F013
:104A0C00E7BA03F0EDBA000008B5034A03490C20DD
:104A1C0003F032FAFEE700BF457C0B009C8F0B00C5
:104A2C000078B0FA80F0400970470123037070479A
:104A3C00F0B503682B4F1B6B87B0044601219847D8
:104A4C002949204601F0E1FF0021204601F0D8FF62
:104A5C000DF11603039305AB02930DF112030193B1
:104A6C0004AB009300231A461E49204602F0A1F81D
:104A7C00204602F0ECF8BDF81460801BBDF8106005
:104A8C0000EBD070C6EB600086B2204602F0E2F874
:104A9C00BDF816502368401BBDF81250DB6E00EBBE
:104AAC00D070C5EB600520469847236820465B6FA5
:104ABC009847ADB22DB223684FF6FF715B6C204660
:104ACC0098472A4631B2204601F097FF39462046D6
:104ADC0003F0EAFB236820469B6F98470028EAD135
:104AEC0007B0F0BD5E900B008C900B002DE9F04FE1
:104AFC008D4B9FB019AA044603F110069346186813
:104B0C005968154603C50833B3422A46F7D11988AC
:104B1C009B78AB70854B29800FAA03F110071646C2
:104B2C0018685968154603C50833BB422A46F7D1A5
:104B3C001B882B807E4B14AA03F1100C15461868A9
:104B4C005968174603C7083363453A46F7D11B88A3
:104B5C003B80784B0BAA03F1100C904618685968EF
:104B6C00174603C7083363453A46F7D123682046F6
:104B7C00D3F8709002F06BF80746204602F06AF802
:104B8C00002280B211460090BBB22046C847236871
:104B9C0001211B6B204698476749204601F035FFE1
:104BAC000021204601F02CFF236ADA7A22B99B7A85
:104BBC00002B14BF2E4646460DF128090DF1260890
:104BCC0000230DF12A0A09AF1A465946CDF8089070
:104BDC00CDF8048000972046CDF80CA001F0E9FF39
:104BEC00204602F034F8BDF82830C01ABDF8243045
:104BFC0000EBD070C3EB600083B22046059302F04B
:104C0C0029F8BDF82A30BDF826500028B8BF03306B
:104C1C0005EB5305C5EBA00000231A463146CDE940
:104C2C000078CDE9029A85B2204601F0C2FF2046F9
:104C3C0002F00DF8BDF82830C01ABDF8243000EB96
:104C4C00D070C3EB600083B22046069302F002F8EA
:104C5C00BDF82A20BDF826303849CDF8048010EB79
:104C6C00400048BF033003EB5203C3EBA00083B2F8
:104C7C00079309AB009300231A46CDE9029A20460C
:104C8C0001F097FF204601F0E2FFBDF82880DFF825
:104C9C00AC90A0EB0800BDF8248000EBD070C8EB02
:104CAC0060001FFA80F8204601F0D4FFBDF82A708E
:104CBC002368C01BBDF826705B6F00EBD070C7EB90
:104CCC00600087B2204698473FB223684FF6FF71C9
:104CDC005B6C204698473A460FFA88F1204601F063
:104CEC008CFE4946204603F0DFFA2AB2BDF91410B7
:104CFC00204601F082FE5946204603F0D5FABDF954
:104D0C001C20BDF91810204601F077FE31462046D4
:104D1C0003F0CAFA236820469B6F98470028D4D129
:104D2C001FB0BDE8F08F00BFB18F0B00C48F0B001C
:104D3C00D68F0B00E88F0B008C900B005E900B0055
:104D4C002DE9F043036887B080461B6B012198471F
:104D5C004149404601F059FED8F820305B7A002BCF
:104D6C0014BF4FF478410021404601F049FE05AED6
:104D7C0000230DF1120504AC0DF116071A46374944
:104D8C000296019500944046039701F012FF4046AD
:104D9C0001F05DFFBDF814903149A0EB0900BDF89E
:104DAC00109000EBD0700023C9EB60001A46CDE9DF
:104DBC000045CDE902671FFA80F9404601F0F9FE83
:104DCC00404601F047FFBDF81620BDF812500028F0
:104DDC0005EB5205B8BF0330C5EBA00085B24046C9
:104DEC0001F038FFD8F80030044640461E6F01F041
:104DFC002EFF211EB8BF033189100939122283B24C
:104E0C00009240468AB20021B047D8F80030144CCA
:104E1C005B6F404698472DB2D8F800304FF6FF71C3
:104E2C005B6C404698472A460FFA89F1404601F0E0
:104E3C00E4FD2146404603F037FAD8F800304046EE
:104E4C009B6F98470028E7D14FF47A7003F082FBF0
:104E5C0007B0BDE8F08300BF8C900B005E900B0098
:104E6C007A900B002DE9F043036887B080461B6BEA
:104E7C00012198473E49404601F0C7FDD8F8203043
:104E8C005B7A002B14BF4FF478410021404601F0AF
:104E9C00B7FD05AE00230DF1120504AC0DF116079C
:104EAC001A4634490296019500944046039701F046
:104EBC0080FE404601F0CBFEBDF814902E49A0EBCD
:104ECC000900BDF8109000EBD0700023C9EB600016
:104EDC001A46CDE90045CDE902671FFA80F9404634
:104EEC0001F067FE404601F0B5FEBDF8165010EB20
:104EFC00400048BF03306D0805EBA00085B240466A
:104F0C0001F0A8FED8F80030044640461E6F01F0B0
:104F1C009EFE14EB440448BF0334A410093C122237
:104F2C0083B200920021A2B24046B047D8F80030BC
:104F3C00114C5B6F404698472DB2D8F800304FF6B5
:104F4C00FF715B6C404698472A460FFA89F1404640
:104F5C0001F053FD2146404603F0A6F9D8F8003085
:104F6C0040469B6F98470028E7D107B0BDE8F08317
:104F7C008C900B005E900B006B900B0070B503686F
:104F8C0004465B6C0D464FF6FF71164698470021A0
:104F9C00204601F035FD3146204601F036FD002259
:104FAC001146204601F029FD204603F084F92946DC
:104FBC00204603F08CF91149204603F088F910497A
:104FCC00204603F084F90F49204603F080F90E497E
:104FDC00204603F07CF9236A5B7A23B14FF47841C5
:104FEC00204601F00DFD0949204603F070F92046DA
:104FFC000749BDE8704003F06AB900BFF88F0B0099
:10500C0009900B001A900B002B900B003C900B009E
:10501C004D900B0070B503680446DB6E16460D46CA
:10502C009847236800211B6B204698472046002197
:10503C0001F0E6FC236820465B6F98472046324619
:10504C002946FFF79BFF236820469B6F9847002853
:10505C00F4D170BD2DE9F04186B01C4B04931C4B70
:10506C00059303681B6A1B7A222B044628D1002562
:10507C0004AE2F46206803685B6F9847206803686E
:10508C004FF6FF715B6C98472068036A02680297C1
:10509C00B3F906100191B3F904300093D2F8808073
:1050AC0056F8253000221146C047206803689B6FD4
:1050BC0098470028E2D14FF4FA6003F04BFA15B18F
:1050CC0006B0BDE8F0810125D4E700BF78970B004E
:1050DC0010D20B002DE9F043284E04460FCE8BB0B6
:1050EC0004AD0FC523681B6A96E803001B7A3C2BA2
:1050FC0085E803003ED104AE032500274FF4784821
:10510C00206803685B6F9847206803684FF6FF714F
:10511C005B6C98472068036A02680297B3F9061023
:10512C000191B3F904300093D2F8809033680022D7
:10513C001146C8472068036A0268CDF80880B3F9A5
:10514C0006100191B3F904300093D2F88090736883
:10515C0000221146C847206803689B6F98470028B7
:10516C00D2D1013D4FF4FA60ADB203F0F3F9083639
:10517C00002DC5D10BB0BDE8F08300BF708F0B00C4
:10518C0010B5044600680368DB6E98472046FFF7AD
:10519C0061FF2046BDE81040FFF79CBF704700F54B
:1051AC00E043002283F89825A3F8A6254FF0C87297
:1051BC00C3F8A8254289A3F8AC25704710B503683D
:1051CC0004465B6C04F5E0444FF6FF7198470023EE
:1051DC00A4F8A03584F8993510BD38B54FF6FF7397
:1051EC00994205460CD069B1B1F5784F1AD04FF6FB
:1051FC00E073C91A18BF4FF0FF31CCB2FF2102E0A7
:10520C00FF24FBE7FF2443F6982205F1680003F026
:10521C000DFE214605F56C5043F69822BDE838404A
:10522C0003F004BE0024E9E7704700F5E040B0F855
:10523C00A205704700F5E040B0F8A405704700F5F2
:10524C00E04393F89A0583F89A1570472DE9F04FCF
:10525C0089B0CDE90323BDF94880BDF94C300593E5
:10526C0018F10702CDE901014FF0000548BF08F124
:10527C000E02BDF850304FEAE20B2E462C46059933
:10528C0032B2914229DD049A02EB050A039A3244A8
:10529C004FF0000912B20FFA89F080451FFA89F11C
:1052AC0018DD4F070BBFC01064001AF80040E4B2C1
:1052BC0020060CD402980144019800680069CDE9DD
:1052CC000623074609B20198B847DDE9062309F120
:1052DC000109E0E701365D44D1E709B0BDE8F08F84
:1052EC0013B504469DF81000009004F1240001F061
:1052FC00C8FD04F5E043002283F89825A3F8A02507
:10530C002368DB6E204602B0BDE8104018472430FD
:10531C0002F006B810B586B00024CDE9044403941D
:10532C00BDF928400294BDF924400194BDF92040F8
:10533C000094243002F0F3F906B010BDF0B5BDF9BD
:10534C001440BDF91850BDF91C609DF820709DF8F3
:10535C0024C09DF828E0CDE90767CDE909CECDE959
:10536C0005452430BDE8F04002F0D9B910B4BDF9C0
:10537C000440019424305DF8044B02F0D7BB13B504
:10538C0024300C46019002F065FB019824B902B060
:10539C00BDE8104001F0C4BF02B010BD30B5002311
:1053AC0089B00446CDE9043304F5E0420393B2F925
:1053BC00A42502924FF4C872CDE9003224300D4678
:1053CC0004F56C5204F16801079002F0A8F90798F3
:1053DC00294602F03FFB079825B909B0BDE83040DB
:1053EC0001F09EBF09B030BDF0B500F5E04489B0C6
:1053FC00B4F9A015B4F8A47594F8986511FB07F3EB
:10540C0005469BB2002E56D0B4F8A225013A12B232
:10541C009142B8BFFF18B4F8A815A8BF4789B4F8D3
:10542C00AC25B8BFBFB20A440F4492B2BFB2BA4265
:10543C000B449BB228BF3A469A4214D90021CDE9BD
:10544C000411D21A12B203910292B4F9AA25019254
:10545C001BB2009300F56C5200F16801B4F9A6354B
:10546C00243002F05CF9B4F8A035B4F9A22501336C
:10547C001BB29A42A4F8A03516D194F89965002372
:10548C00A4F8A035002E4BD1B4F9AC350093B4F987
:10549C00AA35B4F9A825B4F9A61505F1240002F033
:1054AC0045FB304609B0F0BD2B684FF6FF715B6CC5
:1054BC0028469847F5E769890396C91A8AB2BA4211
:1054CC0028BF3A4612B202921BB24FF4C872243073
:1054DC000192009305F56C523346CDE9046605F153
:1054EC006801079002F01BF9B4F8A035B4F9A225B5
:1054FC00079801331BB29A42A4F8A03508D1A4F83E
:10550C00A065314602F0A6FA079801F009FFC8E73A
:10551C002B684FF6FF715B6C284698470126C0E755
:10552C001E46BEE72DE9F04F00F5E04487B094F835
:10553C009835054688469146002B5BD00023A4F88D
:10554C00A03500F56C5B00F1680AB4F9A015B4F84D
:10555C00A22591423BDAB4F8A435B4F8AC75013A03
:10556C0011FB03F69142B6B2BABF9B199AB26A8983
:10557C00B4F8A8351E441F441344BFB29BB29F42DB
:10558C00B6B228BF1F46BE421BD22B684FF6FF7126
:10559C005B6C284698474846C0470023CDE9043346
:1055AC00BF1B3FB203930297B4F9AA35019336B2ED
:1055BC000096B4F9A6355A46514605F1240002F07E
:1055CC00AEF8B4F8A0350133A4F8A035BDE7B4F9B2
:1055DC00AC350093B4F9AA35B4F9A825B4F9A615DD
:1055EC0005F1240002F0A2FA0023A4F8A03507B0BC
:1055FC00BDE8F08FA4F8A03500F1240700F56C5A33
:10560C00B4F9A035B4F8A22593422EDAB4F8A4B5B7
:10561C001BFB03FB2B684FF6FF715B6C284698470E
:10562C004846C0470023CDE904336E8903931FFA23
:10563C008BFBB4F8A425A6EB0B06B6B2964228BF9A
:10564C0016464FF4C872019236B20FFA8BF20092E2
:10565C000296524605F16801384602F060F8B4F83B
:10566C00A0350133A4F8A035CAE73846002102F072
:10567C00F1F9384601F054FEB6E7243001F052BE81
:10568C002DE9F0410C1E074615461E466EDB01F057
:10569C00DEFAA0426ADD002D68DB384601F0DAFA4A
:1056AC00A84263DD07F5E04898F89A352BB13846E7
:1056BC0001F0CDFAE443044424B2384601F0A3F9D6
:1056CC000228AAB2A1B253D003285AD0012804D17F
:1056DC003B89D2431A44254614B2B8F8A615641A6D
:1056EC0024B2002C42DBB8F9AA35B8F8AA059C42C2
:1056FC003CDAB8F8A825AA1A93B212B2002A35DB04
:10570C00B8F9AC15914231DDB8F8A425B8F8A0155C
:10571C0011FB02F15B1A99B21BB2002B26DB12B201
:10572C00934223DAC00810FB01F000EBE40017FAF7
:10573C0080F004F00704C4F10703012490F96820F9
:10574C009C4064B200F56C5142EA040380F8683066
:10575C0091F9003044EA03050D704FF6FF718E424B
:10576C0004D0A6B922EA040480F86840BDE8F081B0
:10577C003C897D89013CD243641A2A4424B215B277
:10578C00ABE77B89013B5B1A2C461DB2A5E7B6F54E
:10579C00784F03D04FF6E0729642E7D100F56C508B
:1057AC0023EA04040470E1E7F0B5BDF91440BDF937
:1057BC001850BDF91C609DF820709DF824C09DF810
:1057CC0028E0CDE90767CDE909CECDE905452430C0
:1057DC00BDE8F04001F01ABD10B58AB00024CDE947
:1057EC0008440794BDF948400694BDF9444005941B
:1057FC00BDF940400494BDF93C400394BDF93840D8
:10580C000294BDF934400194BDF930400094243029
:10581C0001F053FF0AB010BD2DE9F04FBDF9244043
:10582C00BDF92850BDF92C60BDF93070BDF934C0FC
:10583C00BDF938E0BDF93C809DF840909DF844A03E
:10584C009DF848B0CDE90F89CDE911ABCDE90DCE6E
:10585C00CDE90B67CDE909452430BDE8F04F01F0E7
:10586C002CBF10B586B00024CDE904440394BDF9D7
:10587C0028400294BDF924400194BDF920400094C5
:10588C00243002F066F806B010BDF0B5BDF9144036
:10589C00BDF91850BDF91C609DF820709DF824C00E
:1058AC009DF828E0CDE90767CDE909CECDE905459E
:1058BC002430BDE8F04002F04CB82DE9F047BDF9BA
:1058CC002450BDF92860BDF92C70BDF930C0BDF96C
:1058DC0034E09DF838809DF83C909DF840A0BDF9CF
:1058EC0020400894CDE90F9ACDE90DE8CDE90B7C69
:1058FC00CDE909562430BDE8F04701F056BCF0B4B0
:10590C00BDF914509DF818609DF81C709DF820C0CE
:10591C00BDF910400494CDE9077CCDE9055624303F
:10592C00F0BC01F01CBCF0B5BDF91440BDF9185029
:10593C00BDF91C609DF820709DF824C09DF828E0EE
:10594C00CDE90767CDE909CECDE905452430BDE8A1
:10595C00F04001F0E9BB10B58AB00024CDE9084451
:10596C000794BDF948400694BDF944400594BDF92F
:10597C0040400494BDF93C400394BDF93840029476
:10598C00BDF934400194BDF930400094243001F04D
:10599C0023FD0AB010BD2DE9F04FBDF92440BDF92F
:1059AC002850BDF92C60BDF93070BDF934C0BDF97B
:1059BC0038E0BDF93C809DF840909DF844A09DF8DE
:1059CC0048B0CDE90F89CDE911ABCDE90DCECDE9CC
:1059DC000B67CDE909452430BDE8F04F01F0FCBC64
:1059EC002DE9F047BDF92450BDF92860BDF92C70A4
:1059FC00BDF930C0BDF934E09DF838809DF83C907D
:105A0C009DF840A0BDF920400894CDE90F9ACDE94E
:105A1C000DE8CDE90B7CCDE909562430BDE8F04703
:105A2C0001F027BEF0B4BDF914509DF818609DF834
:105A3C001C709DF820C0BDF910400494CDE9077C82
:105A4C00CDE905562430F0BC01F06BBF243001F0D9
:105A5C00EDBF243002F067B810B50446243001F0D5
:105A6C0051F904F5E043002283F89825A3F8A0250A
:105A7C0023682046DB6EBDE81040184710B5102196
:105A8C000446FEF7BEFF204610BD10B547F2B051DC
:105A9C000446FEF7B6FF204610BD0EB403B503ABAB
:105AAC00002153F8042B019302F011FD02B05DF8B4
:105ABC0004EB03B07047000073B504460846227926
:105ACC00A36832B1A3B90B4902B0BDE8704002F033
:105ADC00EBBB094A267B094D0949647B012E18BF93
:105AEC002946CDE900140749FFF7D7FF02B070BD76
:105AFC00054AEFE7416C0D000D7A0D003D6C0D0071
:105B0C00396C0D00576C0D00306C0D0070470000A7
:105B1C002DE9F04FAA4B95B00CAA03F11005914654
:105B2C0018685968144603C40833AB422246F7D1AF
:105B3C00A44A106851680AAB03C3A34B10AA03F123
:105B4C001005924618685968144603C40833AB42D2
:105B5C002246F7D19D4B9E4E186808909B889C4816
:105B6C00ADF82430012100F04CFD9A49984800F022
:105B7C004CFF9748002100F043FF0DF11A030193ED
:105B8C0006AB00930DF11E08002307AF1A464946D9
:105B9C008F48CDF80C80029701F00BF88C4801F07F
:105BAC0056F8BDF81C50401BBDF8185000EBD070D7
:105BBC00C5EB600085B2864801F04CF8BDF81E407C
:105BCC00001BBDF81A4000EBD070C4EB6004804899
:105BDC00FFF7E5FA7E48FFF7F1FAA4B224B24FF6CC
:105BEC00FF713046FFF7F9FA224629B2304600F031
:105BFC0004FF4946304602F057FB3046FFF7F4FBF2
:105C0C000028ECD10490744801F08CFB41F28830F0
:105C1C0002F0A0FC06AB0093049B6D4805930DF1BC
:105C2C001A0B1A460AA9CDE90278CDF804B000F097
:105C3C00C0FF674801F00BF8BDF81C20801A00EB80
:105C4C00D07043106248049301F004F806ABBDF821
:105C5C001E500093059BCDF804B01A4651460326FE
:105C6C00CDE9027890FBF6F000EB5505584800F0B2
:105C7C00A0FF574800F0EBFFBDF81C30C01A00EB3A
:105C8C00D07043105248059300F0E4FF4400504894
:105C9C0094FBF6F4BDF81E60FFF790FA04EB560483
:105CAC00ADB24B4EA4B22DB24FF6FF713046FFF79A
:105CBC0094FA2A46BDF91010304600F09EFE0AA94F
:105CCC00304602F0F1FABDF9141022B2304600F061
:105CDC0094FE5146304602F0E7FA3046FFF784FB5B
:105CEC000028E1D1049041F2883002F033FC06AB7D
:105CFC000093049B3648CDF804B01A464946CDE9CA
:105D0C00027800F056FF324800F0A1FFBDF81C608D
:105D1C00801B00EBD07046102D4800F09BFF06ABAB
:105D2C00BDF81E500093049BCDF804B01A4608A988
:105D3C00CDE90278032490FBF4F000EB55052448E0
:105D4C00DFF88C8000F035FF214800F080FFBDF8B3
:105D5C001C70C01B00EBD07047101D4800F07AFF80
:105D6C00400090FBF4F4BDF81E0004EB50041848FE
:105D7C00FFF724FAADB2A4B22DB24FF6FF71404634
:105D8C00FFF72BFA2A4631B2404600F036FE494660
:105D9C00404602F089FA22B239B2404600F02DFE9C
:105DAC0008A9404602F080FA4046FFF71DFB002888
:105DBC00E3D1094801F0B6FA15B0BDE8F08F00BF89
:105DCC00746C0D00846C0D008C6C0D009C6C0D00C3
:105DDC00EC700320B86D0D00107103202DE9F0411B
:105DEC00DDF8188007460D4614461E4600F00BFEE3
:105DFC00022815D0032821D001280FD12B88228806
:105E0C002A8023803388B8F800203280A8F800302C
:105E1C002B8832881A443B899B1A2B80BDE8F08171
:105E2C002B8832881A443B899B1A2B802388B8F81C
:105E3C0000201A447B899B1A2380EFE72B88228849
:105E4C002A8023803388B8F800203280A8F80030EC
:105E5C00228813447A89D31AEEE72DE9F3410546DB
:105E6C001E461746884600F0F2FE80B205F5E04467
:105E7C004045014628BF4146A4F8A615284600F027
:105E8C00E9FE80B2B842024628BF3A46A4F8A825DB
:105E9C00284600F0DCFEB4F8A635C01A80B2B04239
:105EAC00034628BF3346A4F8AA35284600F0D2FE94
:105EBC00B4F8A835C01ABDF8203080B2984228BF7B
:105ECC00184605F5EB432C33A4F8AC0505F5EB426D
:105EDC00009305F5EB4105F5EB432A3328322631C7
:105EEC002846FFF77BFFB4F8A625012384F89835E4
:105EFC00B4F8AA3502F0070119448BB249071CBF4C
:105F0C0023F00703083322F00702A4F8AA35A4F8FB
:105F1C00A62502B0BDE8F0812DE9F0412DED028BF4
:105F2C005048504C82B0FEF783FD4F494D4800F06D
:105F3C006CFD4C48002100F063FD00261427F1B2E3
:105F4C00204600F05EFB46230F220A2120460097D4
:105F5C00FFF783FF2046FFF731F900252046CDE9F6
:105F6C00007546230F220A2100F097FA2046FFF70E
:105F7C003BFA0028F2D14FF4FA6002F0EBFA20461B
:105F8C00FFF71CF94FF6FF7846230F220A21204613
:105F9C00CDE9007800F081FA2046FFF725FA054696
:105FAC000028F1D14FF47A70013602F0D3FA042EA6
:105FBC00C5D12C4C1427E9B2204600F022FB0097E7
:105FCC0046230F220A212046FFF747FF9FED278A21
:105FDC0001262046FFF7F2F84FF6FF7846230F22F2
:105FEC000A212046CDE9007800F057FA1D220A213B
:105FFC00204600F002FD07EE906AB8EEE70A022197
:10600C0020EE080A204602F053FA2046FFF7ECF97E
:10601C000028E1D14FF4FA70033602F09BFA0D2EF2
:10602C00D7D14FF47A7002F095FA2046FFF7C6F8F4
:10603C002046CDE9007846230F220A2100F02DFAE4
:10604C002046FFF7D1F90028F2D14FF47A700135D0
:10605C0002F080FA042DAED102B0BDEC028BBDE88B
:10606C00F08100BFEC700320B86D0D0033335F413D
:10607C0013B502F0EBFB4FF4E13102F0DBFB02F065
:10608C00E5FB02F018F902F0E1FB2649264C02F080
:10609C001EF9642002F05EFA002301224FF4E13174
:1060AC00009320460223FFF71BF92046FEF7C0FCA5
:1060BC004FF47A7002F04EFA2046FEF717FD4FF4BB
:1060CC007A7002F047FA2046FEF73AFE4FF47A70E7
:1060DC0002F040FA2046FEF7C5FE4FF47A7002F04B
:1060EC0039FA124A12492046FEF794FF4FF47A709F
:1060FC0002F030FA0F48FFF743F8FFF70DFF4FF4AB
:10610C007A7002F027FA04F1240001F009F9FFF784
:10611C00FFFC02F09BFB084902B0BDE8104002F006
:10612C00D6B800BFA26C0D00EC700320B86D0D004A
:10613C00A86C0D00E8700320BA6C0D0030B58FB060
:10614C000446ADF83420ADF832300D46ADF83610BB
:10615C0000F07DFD81B2A94228BF29462046BDF83A
:10616C003450ADF8361000F075FD80B2A84228BF4F
:10617C002846ADF834002046BDF8325000F067FDDB
:10618C00BDF83630C01A80B2A84228BF2846ADF8F8
:10619C0032002046BDF8485000F05CFDBDF83430AC
:1061AC00C01A80B2A84228BF284612ABADF84800EE
:1061BC0000930DAA0DF132030DF136012046FFF7C5
:1061CC000DFE0022CDE908220792BDF94820BDF949
:1061DC0034100692BDF93220BDF936300393CDE967
:1061EC00041204F5E04204F12400B2F9A425029251
:1061FC004FF4C872CDE9001204F56C5204F1680139
:10620C000B9001F0E9F8BDF948300093BDF934204A
:10621C00BDF93230BDF936100B9801F087FC0FB088
:10622C0030BD000030B5354B354A9A60002595B02D
:10623C00C3E90055012001F027FE29460120314C0D
:10624C0001F032FE4823009344224623302103A858
:10625C0000F048FF4FF496724FF4C871204600F0DE
:10626C00DFF904F124032362274B2360BDF92030AE
:10627C002387099BE363BDF82830A4F840300B9BBF
:10628C006364224BA3649DF8343084F84C300E9B2D
:10629C002365BDF83C30049AA4F85430109BA262DC
:1062AC00A365059A119BE262E365069A129B226331
:1062BC002366079A139B62636366B4F90A10144B46
:1062CC0063624FF4967004F5E04391FBF0F200FB2F
:1062DC001211A942C8BF0132A3F8A405A3F8A22544
:1062EC0083F89A5583F89855A3F8A0552046FEF7E5
:1062FC0056FF084B1C6015B030BD00BFDC7003208E
:10630C000000FFFFEC700320E46C0D00D06C0D005E
:10631C00987A0D00E87003202DE9F04F85B01F46E8
:10632C00BDF93880BDF83C30A8EB0209A7EB010A97
:10633C00B9F1000FB8BFC9F10009BAF1000FB8BF2D
:10634C00CAF1000AD14583460C46154604DD3A468F
:10635C002C4647460D469046BC4205DD2A4645462E
:10636C00904622463C4617463E1BB2B20092A8EB22
:10637C00050282EAE271A1EBE271C6F3C03202FAC5
:10638C0086F64545B4BF01224FF0FF3201917610DD
:10639C000292BC421CDCDBF800200393D145D2F8FE
:1063AC001880C7BF294622462A4621465846C04770
:1063BC00019A039BB61AB1B236B2002E05DA029AD4
:1063CC001544009A56182DB236B2013424B2E0E7C7
:1063DC0005B0BDE8F08F704710B404682469A4467A
:1063EC005DF8044B604730B40468BDF80850029562
:1063FC00A46BA44630BC604730B40468BDF80850A8
:10640C000295E46BA44630BC604770B4BDF90C50E7
:10641C00BDF810600468CDE90356246CA44670BC2A
:10642C0060472DE9F3411C460368BDF820805B6989
:10643C0005461646013C34440F4624B298472B6857
:10644C00CDF8048000949C6A28463B463246394677
:10645C00A0472B68DB6A284602B0BDE8F04118471C
:10646C002DE9F3411D460368BDF820805B690446A5
:10647C0017460E469847CDE9007822686B1E3344C8
:10648C00956A20461BB23A463146A8472368DB6A18
:10649C00204602B0BDE8F04118472DE9F3471E46EF
:1064AC000368BDF928905B69BDF82C800C46054645
:1064BC00174698472644B4422B680BDACDF8008077
:1064CC00D3F820A021464B463A4628460134D04703
:1064DC0024B2F0E7DB6A284602B0BDE8F047184763
:1064EC0013B502680191B0F90E100091146CB0F95B
:1064FC000C3000221146A04702B010BD2DE9F74325
:10650C0099421646BDF92870BDF82C900268804659
:10651C000D461C4613D1BE42C8BF3346CDF8289059
:10652C00C4BF3E461F467B1C946B9B1B1BB2324662
:10653C0029464046A44603B0BDE8F0436047BE423E
:10654C000AD19942C2BF0B4625461C46631CCDF8A6
:10655C002890D46B5B1BE9E753699847CDE9007928
:10656C00D8F8003040469F6A324623462946B84741
:10657C00D8F80030DB6A404603B0BDE8F04318475A
:10658C002DE9F3471D460368BDF82C805B69BDF906
:10659C00289004460F46164698472368CDF800808D
:1065AC00D3F824A032462B4639462046D0472368E0
:1065BC00CDF8008009F1FF323244D3F824A03946DB
:1065CC002B46204612B2D0472368CDF80080D3F872
:1065DC0020A032464B4639462046D0476B1ED9196F
:1065EC002368CDF800801D6A20464B46324609B21E
:1065FC00A8472368DB6A204602B0BDE8F04718477D
:10660C00704701F00303B0F90A204376C907B0F9CB
:10661C00083059BF8381C2818281C38170470000D9
:10662C0030B501810024074D42818181C2814FF038
:10663C00FF314FF00112C0E905124460056004619E
:10664C00C46130BDAC790D002DE9F04F2DED028BFE
:10665C0091B01646C269BDF874709DF878409846A2
:10666C00BDF87030029382460D46002A40F0B88087
:10667C00B0F90C308B4240F33D81B0F90E30B3428F
:10668C0040F33881062313FB0413002B40F33281B3
:10669C0006EBC403002B40F32D81C37E33B9B8F154
:1066AC00AF0F84BF08F101085FFA88F8DAF8003000
:1066BC0050465B69984705230993914B08EB880872
:1066CC0043440B93B3B2079308339BB24FF00009CA
:1066DC000A930B9B13F80930069309FB04F8A3B239
:1066EC0018FA85F80593ABB208930FFA88F308EE05
:1066FC00103A079B0393984623B2049309EB0503C6
:10670C001BB208EE903A069ADAF80030D1074BD556
:10671C00012C3BD1D3F818B0029B18EE901A0FFA4B
:10672C0088F25046D847069B059A5B080693039B54
:10673C0013449BB2039308F101031FFA83F80A9BDD
:10674C004345E0D109F101034FFA83F9099B013B61
:10675C0013F0FF030993BCD1029BBB420CD0012C5C
:10676C00DAF800202BD1089900970531146A082318
:10677C00324609B25046A047DAF80030DB6A504680
:10678C0011B0BDEC028BBDE8F04F1847029A019294
:10679C00049A0092D3F81CB018EE101A1346504607
:1067AC00BDF90C20D847BEE7029ABA42BBD0012CE7
:1067BC0003D1D3F818B03B46AFE70197E8E7059B48
:1067CC00019703EB8301089B0B441946059BDB00E7
:1067DC000093D5692346324609B25046A847CBE709
:1067EC00137A516812680A92A8EB03085FFA88F8CA
:1067FC0001EBC80331F838B09A7893F906800B9204
:10680C00012CDA780C9293F90520069295BF00239F
:10681C000FFA88F31F46039398BF0393036888BF4E
:10682C00BDF918705B6998476743A3B20593ABB287
:10683C0017FA85F5B2B20793ABB209930E92002307
:10684C0018FA86F21F461D460F920C9A954293D267
:10685C00039A0E990598DDF824802A4402FB001255
:10686C0012B208EE102ADDE906125618B2B20492E2
:10687C000B9A9A18D2B208920F9A02EB05090FFAEA
:10688C0089F9089A9A4232D05A1CD2B20D925A0700
:10689C0001BF0A9A12F80B700BF101031FFA83FB6C
:1068AC003B060BD5012CDAF8002013D19369BDF906
:1068BC0010101E464A46029B5046B047049E0136B5
:1068CC00B3B20493059B7F009844FFB20D9B1FFA53
:1068DC0088F8D6E7029923B2CDE90031D2690FFAD4
:1068EC0088F11646504618EE102AB047E6E70135F7
:1068FC00EDB2AAE711B0BDEC028BBDE8F08F00BF82
:10690C00A4740D007FB5C26904460B46002A32D12F
:10691C000A2908D1438A0282027E03EBC2036382F6
:10692C00012004B070BD0D29FAD0017E807E70B1BB
:10693C00B4F91050062010FB0150B4F90C50A842C9
:10694C00C1BFB4F91200228200EBC1026282E28A5A
:10695C000192A28A02910092B4F91010B4F912209B
:10696C002046FFF771FE237E228A03EB430302EBE2
:10697C0043032382D4E70A2907D100230382017E33
:10698C00927A438A01FB0233C9E70D29C8D0157AE4
:10699C00A942C5D3517A9942C2D351685D1B01EB10
:1069AC00C505AE781EB3E97809B3017E807E90B13F
:1069BC0095F905000644B4F9100001FB0600B4F982
:1069CC000C60B04207DD00262682B4F91200927AE0
:1069DC0002FB01026282E28A0192A28A0291009277
:1069EC00B4F91010B4F912202046FFF72DFE2979C6
:1069FC00227E238A01FB0233BBE70182428270476D
:106A0C00C18281827047407E7047C36929B113B936
:106A1C00438A06334382C1617047002BFBD0438A03
:106A2C00063BF7E72DE9F74FC469DDE90C65DDE9B5
:106A3C000EEC002C72D00A2909D100211180C269F8
:106A4C00017E947A1A8804FB01221A8063E00D29D6
:106A5C0061D0277AB9425ED394F8098088455AD31D
:106A6C00C91B676807EBC107FC78B97897F90580F3
:106A7C0097F9069000943C79877E0194B7B190F811
:106A8C0018B0B2F9007008EB010A0BFB0A77B0F9E9
:106A9C000CA057450ADD00271780C76990F818A08D
:106AAC0097F80AB01F880BFB0A771F80007E1788A7
:106ABC001B8811FB00F108FB007801390FFA88F7ED
:106ACC0011FA88F8009911FB00F4B6F90010B942DC
:106ADC00C8BF3780B5F9001009FB00390FFA89F3EC
:106AEC009942C8BF2B80BEF9003001990FFA88F883
:106AFC004345B8BFAEF80080013CBCF9003014FA35
:106B0C0089F90FFA89F94B45B8BFACF80090138896
:106B1C0001FB0030108003B0BDE8F08F0A2905D1CD
:106B2C001480017E1A8802EBC1028EE70D29F2D087
:106B3C00817E81B190F81890B2F90080B0F90C7098
:106B4C00062111FB09818F4205DA1480047E198815
:106B5C0001EBC4011980077EB2F90010062414FB66
:106B6C000714B3F9001001EBC701BEF90070013C2A
:106B7C00A742B8BFAEF80040BCF9004001398C42C6
:106B8C00B8BFACF80010B2F90010B6F900408C4256
:106B9C00C8BF3180B3F90030B5F900109942C8BFB5
:106BAC002B80037E118803EB430301EB430313801B
:106BBC00B1E72DE9F04788B0DDE91097DDE91285E2
:106BCC00A9F80020ADF814303B8000232B80A8F8E6
:106BDC0000308389ADF81830C389ADF81A304FF600
:106BEC00FF7304460E46ADF81620ADF81C30ADF818
:106BFC001E300DF11E0A16F8011B79B107AB02937A
:106C0C000DF11A03019306AB0093CDF80CA005AB64
:106C1C000DF116022046FFF705FFECE7BDF91C301D
:106C2C00BDF918209342A1BF01339B1AA9F800208B
:106C3C00A8F80030BDF91A20BDF91E309342A1BF4F
:106C4C0001339B1A3A802B8008B0BDE8F087B0F96D
:106C5C000C007047B0F90E007047F0B59DF820C0DD
:106C6C00BDF918609DF81C709DF824E0BDF9145016
:106C7C0004680595CDE908CECDE906676469A4469C
:106C8C00BDE8F040604703681B691847F0B59DF8F4
:106C9C0020C0BDF918609DF81C709DF824E0BDF96A
:106CAC00145004680595CDE908CECDE906676469F2
:106CBC00A446BDE8F04060472DE9F04FBDF930C067
:106CCC00BDF92860BDF92C70BDF934E0BDF93880F0
:106CDC009DF83C909DF840A09DF844B0BDF924501F
:106CEC0004680995CDE90CCECDE910ABCDE90E8940
:106CFC00CDE90A67E469A446BDE8F04F60477047E8
:106D0C007047704713B50368002200925C6801223B
:106D1C000A23A04702B010BD10B50446006A01F06A
:106D2C00E1F9B4F90C00002803DB002180B201F07A
:106D3C00ABFFB4F90E00002803DB002180B201F098
:106D4C00A3FFB4F91000002805DBBDE810400021BA
:106D5C0080B201F099BF10BD37B5044624482060BD
:106D6C00BDF82400A080BDF82800E08023829DF8A7
:106D7C002C00BDF91830207263829DF83000BDF9EB
:106D8C001C306072A3829DF83400089BA072A36132
:106D9C009DF83800174DE0720023A181E281237722
:106DAC002978BFF35B8F11F001010BD128460191BB
:106DBC00FDF736FE019928B10F4801F075F9284608
:106DCC00FDF733FE0C4B0D4A2362E2620C4B6362FF
:106DDC0001220023228640F201114FF4202220468A
:106DEC00C4E90D12C4E90F3384F8283003B030BD68
:106DFC00187A0D009CE60320A0E6032000093D0054
:106E0C00D06C0D0038B50446B0F9100000281DDB1D
:106E1C00657F80B2DDB1002101F047FF208A01219E
:106E2C0001F032FF0021208A01F03FFF608F01F05A
:106E3C0091FB208A022101F027FF608F0A2838BFBE
:106E4C000A2001F087FB002384F8383038BD01217B
:106E5C0001F02BFF208A012101F016FF208A01216D
:106E6C0001F023FF0A2001F075FB2946208A01F06E
:106E7C001CFF608F01F06EFB208A012101F015FFD1
:106E8C00DBE738B504469DF8100084F8342084F80C
:106E9C00352000226077E286228763870D4631B168
:106EAC0001F0D4FC294601F0C5FC01232377B4F989
:106EBC000C0000280BDB012180B201F0F6FEA0894A
:106ECC00012101F0E1FEA089012101F0EEFE204636
:106EDC00FFF798FF206A01F0F1F8B4F910000028D0
:106EEC000BDB012180B201F0E0FE208A012101F0D0
:106EFC00CBFE208A012101F0D8FEB4F90C00002849
:106F0C000BDB012180B201F0D0FEA089012101F040
:106F1C00BBFEA089012101F0C8FEB4F90E000028C7
:106F2C000BDB012180B201F0C0FEE089012101F0F0
:106F3C00ABFEE089012101F0B8FEB4F91200002883
:106F4C0005DBBDE83840002180B201F09DBE38BDA4
:106F5C0070B504460D46B4F91230002B104642DBD6
:106F6C00012001F0F7FA00F06FFE0646608A01F08E
:106F7C00B5FEB4F91430984215D1E36B7BB3206C99
:106F8C009847608A01F0AAFEB4F9143098420AD1ED
:106F9C0000F05AFEA369801B9842E7D901F056FC19
:106FAC00134901F094F915B3237F03B300F04CFEA1
:106FBC00861B01F04BFC294601F076F901F046FCEA
:106FCC000C4901F071F901F041FC314604460A22EA
:106FDC0001F087F92046BDE8704001F06CB9012042
:106FEC0001F0B8FACDE7BDE8704001F0B3BA70BD5E
:106FFC00FC790D000A7A0D0038B504460D4600F1F7
:10700C002401006A01F09AF8B4F90E00002803DBA1
:10701C00002180B201F049FEB4F90C00002803DB1A
:10702C00002180B201F041FE206A294601F0F4F8FB
:10703C00B4F90C00002803DB012180B201F035FE0D
:10704C00B4F90E00002803DB012180B201F02DFE03
:10705C00206ABDE8384001F057B838B504460D46F3
:10706C0000F12401006A01F069F8B4F90C00002861
:10707C0003DB002180B201F018FE206A294601F0E2
:10708C00CBF8B4F90C00002803DB012180B201F02D
:10709C000CFE206ABDE8384001F036B810B5044645
:1070AC0000F12401006A01F049F8B4F90C00002841
:1070BC0005DBBDE81040002180B201F0F6BD10BD2B
:1070CC00006A01F0A9B810B50446B0F90C0000280C
:1070DC0003DB012180B201F0E8FD206ABDE810401D
:1070EC0001F012B870B58AB001260025CDE907650C
:1070FC0006964FF03C0C4FF49676CDE9046C084E96
:10710C0001954FF4C87EBDF938500095CDE9026E5B
:10711C000446FFF721FE034B236020460AB070BDE6
:10712C00002D3101987A0D00F0B51A46BDF91850B2
:10713C00BDF91430BDF91C609DF820709DF824C079
:10714C009DF828E051B1CDE908CECDE90667046879
:10715C0005956469A446BDE8F0406047F0BD2DE993
:10716C00F04786B00446BDF93C909DF840709DF800
:10717C0044E09DF848A0BDF93880CDF80080CDE9F9
:10718C0003EACDE9019707687F6915461E46B847A3
:10719C002368CDF838909F6B3246434629462046EB
:1071AC00BC4606B0BDE8F04760472DE9F04F8DB006
:1071BC000446BDF96050BDF96C70BDF96460BDF951
:1071CC0068809DF87090BDF95CE09DF874A09DF806
:1071DC0078B0BDF958C0CDF800C0CDE90579CDE93E
:1071EC0007ABCDE90368CDE901E50B950568D5F84A
:1071FC001C90C847236816979F6B0B9943463246E1
:10720C002046BC460DB0BDE8F04F60472DE9F04379
:10721C0087B00446BDF93860BDF93C70BDF94080BB
:10722C009DF844C09DF848E09DF84C90CDE9028C47
:10723C00CDE904E9CDE900671D46FFF775FF23682A
:10724C00CDF83880D3F838E032463B462946204604
:10725C00F44607B0BDE8F04360472DE9F0415D1EF0
:10726C00BDF818600D4421F0070104468FB2013EB1
:10727C0090219046164445F00705FFF7BDFE390AEC
:10728C002046FFF7EAFE2DB207F0F8012046FFF783
:10729C00E4FEC5F307212046FFF7DFFEE9B22046E6
:1072AC00FFF7DBFE4FEA18212046FFF7D6FEB6B2F9
:1072BC005FFA88F12046FFF7D0FE310A2046FFF72F
:1072CC00CCFEF1B22046FFF7C8FE20460021BDE8F7
:1072DC00F041FFF7C2BE000010B590F836300446FE
:1072EC003BB90421FFF788FE044928222046FFF70A
:1072FC002FFE012384F8363010BD00BF607A0D00DC
:10730C0010B502210446FFF777FE04491E222046E1
:10731C00FFF71EFE002384F8363010BD697A0D008D
:10732C00FFF7EEBF10B50446FFF7EAFFB4F91030D3
:10733C00002B0ADB07212046FFF75EFEA521204625
:10734C00FFF78BFE012384F8383010BD10B590F890
:10735C00383004460BB1FFF755FD20460621FFF7E8
:10736C004BFE20461721FFF778FE20461721FFF72A
:10737C0074FE20461721FFF770FE20460021FFF710
:10738C003BFE20460F21FFF768FE20466121FFF7E8
:10739C0033FE20460121FFF760FE20469021FFF7C7
:1073AC005CFE20460121FFF758FE20462C21FFF7FA
:1073BC0054FE20465021FFF71FFE2046F721BDE862
:1073CC001040FFF74ABE10B50446FFF7BFFF20463A
:1073DC00BDE81040FFF780BF2DE9F04F2DED028B7B
:1073EC008BB09A46BDF958300293BDF960300393C7
:1073FC009DF8743005939DF87830069390F83430EE
:10740C00BDF95CB0BDF96490BDF96850BDF96C6014
:10741C00BDF970700891044604921BB10368FF21FA
:10742C001B699847012001F095F8BBF1000FC0F2E1
:10743C001B81039B002BC0F21781002EC0F214811C
:10744C00002FC0F21181BAF1000FC0F20D81D345AB
:10745C0040F30A81029B002BC0F20681DDE9022376
:10746C00934240F30181A3EB02084745A8BF47466E
:10747C00D9F1000303F007031FFA89F009F007099B
:10748C0058BFC3F100092AF00703ABEB03039E427C
:10749C00A8BF1E4616F1070C1FFA89F948BF06F162
:1074AC000E0CA0EB090109B22CF0070C21EAE172D9
:1074BC00A9EB000301FA8CF1B1F5C87F9BB205EB87
:1074CC0007010FFA8CF6A4BF03F5C87636B21FFA83
:1074DC0085F9B1F5967FA8BFC9F596770FFA87F8AD
:1074EC0013FA82F7BFB2F61BB3B236B291B2002ECA
:1074FC0008EE101A40F3B88025EAE575ADB2A9EB99
:10750C00050290441FFA88F20FFA88F8B8F1000FC0
:10751C00079240F3A98094F8372022B920460993AA
:10752C00FFF751FF099B099391212046FFF764FD5A
:10753C00079B00932A46099B18EE101A2046FFF76A
:10754C008CFE10212046FFF757FD3FB22046FFF777
:10755C00A5FD002F4FEAEA03B8BF073703EBE70797
:10756C00029BA5EB09052DB26FEA030A039BAAEB5C
:10757C00050A9A44029B0BF1070BCBF3CF0B1D446E
:10758C0015FB0BF51AFB0BFA1AFA87FA15FA87F7A3
:10759C001FFA8AFABFB2F6103D46D14600220023EC
:1075AC0019B28E4215DD069989B109EB03010898D1
:1075BC0009B2415C059808B1C943C9B22046CDE96E
:1075CC000223FFF77DFD039B029A0133E8E7E918DC
:1075DC00EDE7013213B2A9EB0B095D4498451FFA94
:1075EC0089F9ADB2DBDC2046FFF76DFD1321204697
:1075FC00FFF702FD2046FFF751FD4FF00009002573
:10760C002BB29E4215DD049B8BB1069B6BB10AEB32
:10761C0005031BB2049AD15C059B0BB1C943C9B2DB
:10762C002046FFF74DFD0135EAE77B19F1E7FF2115
:10763C00F6E709F101090FFA89F3AAEB0B0A5F448B
:10764C0098451FFA8AFABFB2D9DC2046FFF73BFDFA
:10765C0020469221FFF7D0FC01200BB0BDEC028B31
:10766C00BDE8F04F00F076BF0BB0BDEC028BBDE86F
:10767C00F08F10B58AB09DF8504009949DF84C409D
:10768C0008949DF848400794BDF944400694BDF910
:10769C0040400594BDF93C400494BDF93840039436
:1076AC00BDF934400294BDF93040CDE900341346A5
:1076BC000022FFF791FE0AB010BD2DE9F04F8DB0FE
:1076CC00BDF96050BDF97070BDF958C0BDF964804A
:1076DC00BDF96C60BDF95CE09DF874909DF878A0E4
:1076EC009DF87CB00B902C46BDF96850CDE906791D
:1076FC00CDE900CECDE908ABCDE90456CDE9024881
:10770C00FFF76AFE0B9B0B981B6816979F6B2A461C
:10771C0033464146BC460DB0BDE8F04F60472DE9FD
:10772C00F04F8BB01C469DF85C3006939DF8603092
:10773C00079390F83430BDF95070BDF95480BDF901
:10774C005860CDE9041205461BB10368FF211B6983
:10775C009847012000F0FEFE624202F00702A3B23D
:10776C0004F0070458BF544218F1070948BF08F148
:10777C000E09A4B2191BC9F3CF0909B24FEAC9000B
:10778C0021EAE172E41A01FA80F1B1F5C87FA4B2E2
:10779C000FFA80F8A8BF04F5C87814FA82F4A8BFD1
:1077AC000FFA88F8BB19A4B2B3F5967FA8EB0408BE
:1077BC001FFA87FAA8BFCAF596711FFA88F30FFA59
:1077CC0088F8ACBF09B23146B8F1000F1FFA82FB42
:1077DC00099340F3A38027EAE777BFB2AAEB07022D
:1077EC0011440BB28AB2002B0892039340F396809B
:1077FC002846FFF7E8FD91212846FFF7FDFB089A84
:10780C00099B009259463A462846FFF726FD10215F
:10781C002846FFF7F1FB24B22846FFF73FFCA7EB05
:10782C000A07002C3FB2B8BF0734013EC4F3CF04A3
:10783C00F61B17FB09F716FB09463C44B6B2A4B27B
:10784C004FEAE8082746B24600234FF0000B0FFA28
:10785C008BF2904519DD049AAAB1079A82B10AEB12
:10786C000B0212B20499895C069A0AB1C943C9B2D7
:10787C00284608930BF1010BFFF722FC089BE6E767
:10788C0007EB0B02EDE7FF21F2E7039901331AB284
:10789C00AAEB090A4F448A421FFA8AFABFB2D4DB18
:1078AC002846FFF710FC13212846FFF7A5FB2846B6
:1078BC00FFF7F4FB4FF0000A00273BB2984514DDAC
:1078CC00059B83B1079B63B1F3191BB2059AD15C7D
:1078DC00069B0BB1C943C9B22846FFF7F1FB013730
:1078EC00EBE7E319F1E7FF21F6E7039A0AF1010A46
:1078FC000FFA8AF3A6EB09064C449A42B6B2A4B22C
:10790C00DADC2846FFF7DFFB28469221FFF774FBF1
:10791C0001200BB0BDE8F04F00F01CBE0BB0BDE871
:10792C00F08F10B586B09DF8304005949DF82C4032
:10793C0004949DF828400394BDF924400294BDF9A9
:10794C002040CDE9003413460022FFF7E8FE06B0D4
:10795C0010BD2DE9F04387B00446BDF93860BDF980
:10796C003C70BDF940809DF844C09DF848E09DF8FE
:10797C004C90CDE9028CCDE904E9CDE900671D46B8
:10798C00FFF7CDFE2368CDF83880D3F838E03246C7
:10799C003B4629462046F44607B0BDE8F043604715
:1079AC00F7B50025044680F8345016460F46FFF70D
:1079BC000AFD91212046FFF71FFB4FF496732A46D0
:1079CC002946009320464FF4C873FFF746FC10215C
:1079DC002046FFF711FB2046FFF760FB43F6982586
:1079EC00013D39462046ADB2FFF76AFB002DF7D1B9
:1079FC002046FFF768FB13212046FFF7FDFA2046CF
:107A0C00FFF74CFB43F69825013D31462046ADB2BD
:107A1C00FFF756FB002DF7D12046FFF754FB9221C0
:107A2C00204603B0BDE8F040FFF7E6BAFF22FFF7AF
:107A3C00B7BF000010B512210446FFF7DDFA20464F
:107A4C000349BDE810404FF47A52FFF781BA00BFEA
:107A5C00737A0D0013B559B103684FF49672009206
:107A6C0000229C6B11464FF4C873A04702B010BDA6
:107A7C0002B0BDE81040FFF7DDBF000010B51221C9
:107A8C000446FFF7B9FA20460349BDE810404FF40D
:107A9C007A52FFF75DBA00BF807A0D00F7B500256A
:107AAC00044680F8345016460F46FFF78CFC9121A3
:107ABC002046FFF7A1FA4FF496732A462946009305
:107ACC0020464FF4C873FFF7C8FB10212046FFF780
:107ADC0093FA2046FFF7E2FA43F6982539462046FA
:107AEC00FFF7EEFA013DF9D12046FFF7ECFA13212E
:107AFC002046FFF781FA2046FFF7D0FA43F6982587
:107B0C0031462046FFF7DCFA013DF9D12046FFF75C
:107B1C00DAFA2046FFF7B2FF9221204603B0BDE807
:107B2C00F040FFF769BAFF22FFF7B8BFF0B585B098
:107B3C000029BDF92860BCBF5B181BB221EAE174B7
:107B4C00002AB8BFB61822EAE27704EB0302B8BFEA
:107B5C0036B2B2F5C87FA8BFC4F5C87307EB0602EE
:107B6C00A8BF1BB2B2F5967FA4BFC7F5967636B206
:107B7C00002B26DD002E24DD04F007052B441DB25E
:107B8C00694201F007019AB205F0070358BF4B4256
:107B9C00002BC2BF02F10805ED1A2DB20390B6B24C
:107BAC00FFF711FC24F007010398009689B2ABB2E1
:107BBC00BAB2FFF752FB039805B0BDE8F040FFF7EF
:107BCC005DBF05B0F0BD000008B5024B1B689B689B
:107BDC00019308BD6802030008B5024B1B68DB6803
:107BEC00019308BD6802030008B5024B1B689B6833
:107BFC00019308BD2C02030008B5024B1B68DB681F
:107C0C00019308BD2C02030008B5024B1B681B69CD
:107C1C00019308BD2C02030008B5024B1B685B697D
:107C2C00019308BD2C02030008B5024B1B685B686E
:107C3C00019308BD1802030008B5024B1B68DB68F2
:107C4C00019308BD1802030008B5024B1B681B69A1
:107C5C00019308BD1802030008B5024B1B685B6951
:107C6C00019308BD1802030008B5024B1B685B6C3E
:107C7C00019308BD4802030008B5024B1B685B6901
:107C8C00019308BD6402030008B5024B1B68DB6856
:107C9C00019308BD3C02030008B5024B1B681B692D
:107CAC00019308BD3C02030008B5024B1B685B69DD
:107CBC00019308BD3C02030008B5024B1B689B698D
:107CCC00019308BD3C02030008B5024B1B68DB693D
:107CDC00019308BD3C02030008B5024B1B681B6AEC
:107CEC00019308BD3C02030008B5024B1B689B6A5C
:107CFC00019308BD3C02030008B5024B1B681B6CCA
:107D0C00019308BD3C02030008B5024B1B681B6ABB
:107D1C00019308BD2802030008B5024B1B685B6A7F
:107D2C00019308BD2802030008B5024B1B689B6A2F
:107D3C00019308BD2802030008B5024B1B68DB6ADF
:107D4C00019308BD2802030008B5024B1B681B6B8E
:107D5C00019308BD2802030008B5024B1B685B6B3E
:107D6C00019308BD2802030008B5024B1B681B6C6D
:107D7C00019308BD2802030008B5024B1B681B6861
:107D8C00019308BD3002030008B5024B1B685B6809
:107D9C00019308BD3002030008B5024B1B685B69F8
:107DAC00019308BD3002030008B5024B1B68DB6968
:107DBC00019308BD3002030008B5024B1B681B6A17
:107DCC00019308BD3002030008B5024B1B685B6AC7
:107DDC00019308BD3002030008B5024B1B68DB6B36
:107DEC00019308BD3002030008B5024B1B681B6CE5
:107DFC00019308BD3002030008B5024B1B685B6C95
:107E0C00019308BD3002030008B5024B1B681B68C8
:107E1C00019308BD4C02030008B5024B1B685B685C
:107E2C00019308BD4C02030008B5024B1B681B698B
:107E3C00019308BD4C02030008B5024B1B685B693B
:107E4C00019308BD4C02030008B5024B1B689B69EB
:107E5C00019308BD4C02030008B5024B1B68DB699B
:107E6C00019308BD4C02030008B5024B1B681B6A4A
:107E7C00019308BD4C02030008B5024B1B685B6BF9
:107E8C00019308BD6002030008B5024B1B685B68D8
:107E9C00019308BD2002030008B5024B1B685B6907
:107EAC00019308BD2002030008B5024B1B68DB6A76
:107EBC00019308BD2002030008B5034B1B68D3F8DF
:107ECC008830019308BD00002002030008B5034B65
:107EDC001B68D3F89430019308BD00002002030006
:107EEC0008B5024B1B685B68019308BD4002030098
:107EFC0008B5024B1B689B68019308BD4002030048
:107F0C0008B5024B1B68DB68019308BD40020300F7
:107F1C0008B5024B1B681B69019308BD40020300A6
:107F2C0008B5024B1B685B69019308BD4002030056
:107F3C0008B5024B1B689B69019308BD4002030006
:107F4C0008B5024B1B68DB69019308BD40020300B6
:107F5C0008B5024B1B681B6A019308BD4002030065
:107F6C0008B5024B1B681B6B019308BD4002030054
:107F7C0008B5024B1B685B6B019308BD4002030004
:107F8C0008B5024B1B681B6C019308BD4002030033
:107F9C0008B5024B1B685B6C019308BD40020300E3
:107FAC0008B5024B1B685B6D019308BD40020300D2
:107FBC0008B5024B1B689B6D019308BD4002030082
:107FCC0008B5024B1B68DB6B019308BD4402030030
:107FDC0008B5024B1B681B68019308BD1C0203000B
:107FEC0008B5024B1B685B68019308BD1C020300BB
:107FFC0008B5024B1B685B6A019308BD1C020300A9
:10800C0008B5024B1B681B6C019308BD1C020300D6
:10801C0008B5024B1B685B6C019308BD1C02030086
:10802C00002240681146FFF793BF002240681146BA
:10803C00FFF79EBF40680022FFF792BF4068002206
:10804C0081F00101FFF77CBF002340681A461946F6
:10805C00FFF76EBF002340681A461946FFF760BF52
:10806C00002240681146FFF753BF002240681146BA
:10807C00FFF73EBF406800220221FFF741BF0023FB
:10808C0040681A46FFF72CBF024B03225A60024A83
:10809C001A607047A8E60320E87A0D000021FFF76C
:1080AC00ABBE0021FFF7A0BE10B5044608462170F8
:1080BC00FFF77AFE00236360204610BD13B504461B
:1080CC000078FFF7EEFF58B9207801904FF6FF715A
:1080DC00FFF752FE019802B0BDE81040FFF7DEBF7B
:1080EC0002B010BD13B504460078FFF7DAFF48B9AB
:1080FC0020780190FFF748FE019802B0BDE81040CF
:10810C00FFF7CCBF02B010BD0078FFF7C7BF00006F
:10811C00400830B51860002418688842E5B206D9CA
:10812C000134082C02D040081860F5E70725024BF3
:10813C005B5D137030BD00BF247B0D002DE9F04357
:10814C0006468FB000780C46FFF7ABFF00281BDB10
:10815C0035781422002109A800F068FE0B230022B8
:10816C0009A92846ADF82430FFF72EFE9DF82D30D6
:10817C0013B19DF82C5055B10027B946B8460125CE
:10818C0023795DB1C3B100200FB0BDE8F083DDF8F9
:10819C0030809DF834909DF83570F1E7002B35D187
:1081AC00A368434508D18DF820908DF82170BDF857
:1081BC002020A3899A42E6D00023A1688DF80F30C5
:1081CC000A9804AB0DF10F02FFF7A2FF217985B9D4
:1081DC0089B9A36843450ED38DF820908DF8217092
:1081EC00BDF82020A3899A4205D1049B434502D1B6
:1081FC00C9E70029F9D100230193637B00939DF813
:10820C000F20237B3078FFF7E7FDBCE7CDE9005565
:10821C002B462A460121F5E708B50078FFF7BCFD8F
:10822C00C0B208BD054B02221A60054B054A9A6084
:10823C000020C3E90000FFF727BE00BFBCE6032007
:10824C00B0E603200000FFFF024800230360FFF7A5
:10825C000BBD00BFC0E60320F8B506460D468F18CF
:10826C000024BD420CD0336815F8011B9B683046C6
:10827C009847031E01DB1C44F3E7002C08BF1C4687
:10828C002046F8BD13B50446084659B10191FCF7D8
:10829C0073FB23680199DB680246204602B0BDE8F7
:1082AC001040184702B010BD08B5FFF7EBFF08BD32
:1082BC0003689B68184738B50D210546FFF7F8FF92
:1082CC000A2104462846FFF7F3FF204438BD38B591
:1082DC000546FFF7D7FF04462846FFF7ECFF20447E
:1082EC0038BD30B58BB00023012A8DF8243098BFEF
:1082FC000A2209AC0D46B1FBF2F101FB125303F05B
:10830C00FF03092B94BF30333733DBB2AA4204F896
:10831C00013DEFD92146FFF7B5FF0BB030BD000092
:10832C002DE9F74F55EC104B06460F4610EE102A70
:10833C0010EE100A2B462946FCF7C0FA40B15349FF
:10834C003046FFF79FFF8246504603B0BDE8F08FE2
:10835C0025F000494E4B4FF0FF3220464946FCF7C2
:10836C00ADFA48B94A4B4FF0FF3220464946FCF76C
:10837C0087FA08B94749E3E7474B4FF0604220467C
:10838C002946FCF791FA08B14449D9E7444B4FF020
:10839C00604220462946FCF769FA0028F4D10022F5
:1083AC00002320462946FCF761FAD0B12D21304636
:1083BC00FFF77EFF05F1004382461D463949DFF881
:1083CC00EC904FF0000B00204FF000085FFA8BF39D
:1083DC009F4208D942464B46FCF700F90BF1010BC2
:1083EC00F4E78246EAE722462B46FBF717FE0D46DA
:1083FC000446FCF7A1FA8046FBF74CFF02460B46FD
:10840C0020462946FBF708FE0A2204460D46304654
:10841C004146FFF766FF8244002F95D02249DFF8D2
:10842C008C903046FFF72EFF4FF000088244002F4F
:10843C008AD042464B4620462946FBF7A5FF044608
:10844C000D46FCF751FAB0F1000B1CDA2D21304629
:10845C00FFF72EFFCBF1000103460A2230460193B1
:10846C00FFF73FFF019B184482445846FBF722FF5D
:10847C0002460B4620462946FBF7CEFD013F04463B
:10848C000D46FFB2D3E759460023E6E72C7B0D00DF
:10849C00FFFFEF7F307B0D00FFFFEF41347B0D00C2
:1084AC00FFFFEFC10000E03F826C0D000000244094
:1084BC0038B5044610EE100ACDB2FBF70DFF41ECB7
:1084CC00100B29462046BDE83840FFF729BF2DE99F
:1084DC00F04186B000AF05460E46381D14211446F7
:1084EC003B60FFF785FD13280ED8391D2846FFF792
:1084FC00C9FE04461EB12846FFF7DDFE04442046A3
:10850C001837BD46BDE8F08100F1080323F00703DE
:10851C00E846ADEB030D2246411C3B686846FFF76D
:10852C0067FD69462846FFF7ADFE0446C546E1E700
:10853C00014B024A1A607047C4E60320387B0D00D9
:10854C00024B1A68024B1A60704700BF7070032010
:10855C00C8E603200021FFF79FBC0000014B00225E
:10856C009A607047CCE60320014B1860704700BF3F
:10857C007470032008B50B4B43B100F067F9036826
:10858C001B699847002801DDAFF30080064B43B10F
:10859C0000F0D2FB03681B699847002801DDAFF39C
:1085AC00008008BD000000000000000008B5FFF7C7
:1085BC00E1FFFFF751FB014B186008BD4CE70320AE
:1085CC000548064A064908B5121A00F021FC054B6D
:1085DC00054A1A6008BD00BF00F4032004F4032010
:1085EC00C87D0D0000F403201E1C279A07B500233C
:1085FC0000931A466FF07701FFF768FC03B05DF843
:10860C0004FB000007B543880A2B08D0502B0BD174
:10861C00094B1B684BB103B05DF804EB1847FFF72F
:10862C00E5FF03B05DF804FB002300931A466FF0DE
:10863C007701FFF74BFCF4E7E0E6032010B5124896
:10864C000021FFF7E5FC114B1A68114B9A42114BB4
:10865C000CBF012200221A7001D0FFF7B1FFFFF707
:10866C00E3FA044600F0EAFB0B4B13B12046AFF3E0
:10867C00008000210848FFF7A3FCBDE81040074824
:10868C000021FFF719BC00BF75850B0000F4032017
:10869C001E1C279ADCE603200000000011860B004C
:1086AC00704710B518210446FCF7ABF9204610BDF5
:1086BC00F0B5037D062B8DB00E4600F104074FF08C
:1086CC00000412D000F1080515F8011D0A223046ED
:1086DC00FFF707FEAF42044419D0002CF4D02E2132
:1086EC003046FFF7E5FD0444EEE72F236A46394692
:1086FC000A208DF80040FFF7BFFA6846FCF73CF9FA
:10870C0033680246DB686946304698470446204683
:10871C000DB0F0BD10B5054B0446112240F8043BDA
:10872C00002100F083FB204610BD00BF607B0D00D4
:10873C000346074A10B543F8042B01F1100251F817
:10874C00044B43F8044B9142F9D10A781A7010BDCE
:10875C00607B0D0010B59DF8084044EA032343EA02
:10876C00024242EA016104234160037510BD00001E
:10877C0007B5064B0360CB7800938B784A78097861
:10878C00FFF7E8FF03B05DF804FB00BF607B0D0052
:10879C00417470477047704708B50021007CFFF7A3
:1087AC0053FB40EAE07008BD08B50121007CFFF7DF
:1087BC004BFB40EAE07008BD08B5007CFFF73CFBC2
:1087CC0020EAE07008BD08B5007CFFF72DFB20EA1D
:1087DC00E07008BD13B50446007C0191FFF72CFB3B
:1087EC000028019901DC607C20B1207CFFF734FB70
:1087FC0020EAE07002B010BD007CFFF735BB10B56D
:10880C0014210446FCF7FDF8204610BD10B54FF4BA
:10881C007A73044608460021C4E90113044B236013
:10882C000123207463741146FFF7EEFA204610BD45
:10883C00747B0D00007C0022FFF7EEBA10B51422F9
:10884C000446002100F0F2FA204610BD10B50F4C82
:10885C0088B003A8FFF7F2FF2178BFF35B8F11F00C
:10886C0001010FD120460191FCF7DAF8019948B1CA
:10887C0003AA0748FFF7CAFF2046FCF7D6F80548BD
:10888C0000F0C0FA024808B010BD00BFE4E60320B7
:10889C00E8E60320A1870B00002240681146FFF791
:1088AC0037BB002240681146FFF752BB00224068DC
:1088BC001146FFF75DBB40680022FFF751BB4068D3
:1088CC00002281F00101FFF73BBB002340681A46F0
:1088DC001946FFF72DBB002340681A461946FFF7CF
:1088EC001FBB002240681146FFF702BB4068002204
:1088FC000221FFF705BB002340681A46FFF7F0BAC8
:10890C00084B10B5282422461846002100F08EFA98
:10891C00054B04804FF0FF32426004225A60034A38
:10892C001A6010BD04E70320FCE60320A47B0D00B5
:10893C0070474174704708B5007CFFF7D5F920EA01
:10894C00E07008BD08B5007CFFF7A6F920EAE070DE
:10895C0008BD08B5007CFFF7AFF940EAE07008BD30
:10896C0008B5007CFFF7A0F940EAE07008BD007C78
:10897C00FFF7AAB937B5457C04462DB1207C03B06E
:10898C00BDE83040FFF780B9007C0191FFF7ACF9EE
:10899C0000280199F2DC284603B030BD10B5142133
:1089AC000446FCF72EF8204610BD000010B54FF41D
:1089BC007A730446084611460022C4E90123044B8D
:1089CC002360012320746374FFF796F9204610BDD1
:1089DC00E87B0D007047F8B5064615460C468F1817
:1089EC00BC4206D0336814F8011B9B68304698478C
:1089FC00F6E72846F8BD007C0022FFF785B9007C1D
:108A0C000021FFF789B9007C0021FFF78DB9007CAC
:108A1C000021FFF791B9007C0021FFF795B910B543
:108A2C0014210446FBF7EDFF204610BD38B5044673
:108A3C0015464FF47A730022C4E90123094B2174C3
:108A4C00084623602946FFF78FF9BF3008D16B69C0
:108A5C00DB0705D56868FFF7C3FAE868FFF7C0FACB
:108A6C00204638BD187C0D00002340681A46FFF7DD
:108A7C0037BA406800220221FFF742BA0022406850
:108A8C001146FFF735BA002240681146FFF740BA8D
:108A9C00002340681A461946FFF742BA0023406883
:108AAC001A461946FFF744BA40680021FFF768BA26
:108ABC0040680021FFF76CBA4068002281F0010188
:108ACC00FFF73EBA40680022FFF74ABA002240681E
:108ADC001146FFF74DBA002240681146FFF738BA2D
:108AEC0040680021FFF764BA2DE9F04395B01446B5
:108AFC000D460746FFF70EFE00211C220DA8009123
:108B0C0000F094F940230C9320466B460CAA0021EC
:108B1C00FFF762F8044600284BD102460121686831
:108B2C00FFF7F6F90221804622466868FFF7F0F954
:108B3C00009E81462146002E3BD0002939D1736816
:108B4C00022B03D00A2B11D0F669F4E7B8F1000F11
:108B5C00FAD0716906A8043107ADFFF709FE0FCDF5
:108B6C003C1D0FC42B6823704146EDE7B9F1000F93
:108B7C00EAD07469102201A800F058F906238DF888
:108B8C00143001AD04F108031834186859682A46EA
:108B9C0003C20833A3421546F7D101A906A807ADB5
:108BAC00FFF7C6FD0FCD3C1D0FC42B682370494643
:108BBC00CAE70098FFF708F8384615B0BDE8F0830F
:108BCC000328024605D0044B0448042A18BF184653
:108BDC0070470348704700BF2CE70320FCE60320D6
:108BEC00A8E6032008B500224068FFF7D9F9BDE8D4
:108BFC000840FFF7E5BF0000024B034A1A60002251
:108C0C005A6070472CE70320407C0D00252813B5D3
:108C1C0002D9002002B010BDA0F10B03022B1AD810
:108C2C00174C2178BFF35B8F11F001010BD120465B
:108C3C000191FBF7F5FE019928B11248FFF734FAC0
:108C4C002046FBF7F2FE0F4B1878FFF7B5F800281B
:108C5C00DFD10120DEE7012809D800F0ADF80021B2
:108C6C00007CFFF779F880F00100C0B2D2E7093838
:108C7C000128EED800F060F8007CFFF72DF8F2E741
:108C8C009CE60320A0E60320252838B504460D46B3
:108C9C000AD8FF2908D0FFF7B9FF28B1294620468A
:108CAC00BDE83840FEF7A0BF38BD38B504460D46C8
:108CBC00FEF7A2FFFF2810D0062804D84D2323FA74
:108CCC0000F0C30709D42046FFF7A0FF28B12946BE
:108CDC002046BDE83840FEF797BF38BD10B50446B6
:108CEC00FEF78AFF031FDBB2012B08D92046FFF7E2
:108CFC008DFF20B12046BDE81040FEF78DBF00204F
:108D0C0010BD704738B5044614252A46002100F0E2
:108D1C008DF825804025074925812846258200F0BD
:108D2C006FF804496060284600F06AF8E06020465D
:108D3C0038BD00BF7C7C0D0030B50E4D2978BFF3DB
:108D4C005B8F11F0010487B011D12846FBF768FE48
:108D5C0068B101A8FFF7D6FF01AA21460648FFF724
:108D6C0025FE2846FBF761FE044800F04BF802484C
:108D7C0007B030BD34E7032038E703200F8D0B001C
:108D8C007047000038B50A4B036001230446436169
:108D9C000849202000F034F8202560600549A560C2
:108DAC00284600F02DF8C4E90305204638BD00BF65
:108DBC00180001007C7C0D0030B50E4D2978BFF3F6
:108DCC005B8F11F0010487B011D12846FBF728FE08
:108DDC0068B16846FFF7D6FF6A4621460648FFF79A
:108DEC0025FE2846FBF721FE044800F00BF802484C
:108DFC0007B030BD50E7032054E703208D8D0B00E6
:108E0C00FBF7FDBD002301461A46184600F044B896
:108E1C000A44914200F1FF3300D1704710B511F8AC
:108E2C00014B03F8014F9142F9D110BD02440346A6
:108E3C00934200D1704703F8011BF9E738B5104B8A
:108E4C001D68AB6B0446B3B91820FFF7C1F8024696
:108E5C00A86320B90B4B0C484221FFF7D1F80B4902
:108E6C000B4BC0E900130B4B83600B238381002158
:108E7C000120C2E90401AB6B00221C615A6138BDB0
:108E8C00747003207D7C0D00947C0D000E33CDABF3
:108E9C0034126DE6ECDE05002DE9F843DFF8B880FE
:108EAC000646D8F800001F460D46914600F056F8CD
:108EBC00254B1C6834B9254C1C60254B13B11B6821
:108ECC00C4F8883063681F2B07DDD8F8000000F069
:108EDC0047F84FF0FF30BDE8F8834EB3D4F8880064
:108EEC0088B91C4B23B9D8F8000000F038F8F0E72B
:108EFC004FF48470FFF76CF80028F4D00023C0E91D
:108F0C004033C4F88800636840F8239001229A40EB
:108F1C0000EB8301D0F800311343C0F80031022E6E
:108F2C00C1F8807002BFD0F804311343C0F804318B
:108F3C006368D8F800005A1C0233626044F823506E
:108F4C0000F00EF80020C6E7F4E7032068E70320E2
:108F5C0000000000DD7F0B00D870032070477047C5
:108F6C007047000068BC0C00A00C0C0000F70C0053
:108F7C0038470C0098310D00D0810C0095490B003E
:108F8C00D1490B00F9490B00FD490B000000000012
:108F9C0043616C6C206F6E207075726520766972FF
:108FAC007475616C0066756C6C2073637265656EAC
:108FBC0020757064617465006661737420706172F1
:108FCC007469616C206D6F646500736C6F772070D1
:108FDC0061727469616C206D6F6465006E6F2070D6
:108FEC0061727469616C206D6F64650020212223AD
:108FFC002425262728292A2B2C2D2E2F00303132E0
:10900C00333435363738393A3B3C3D3E3F004041EE
:10901C0042434445464748494A4B4C4D4E4F0050FD
:10902C005152535455565758595A5B5C5D5E5F000C
:10903C00606162636465666768696A6B6C6D6E6FAC
:10904C0000707172737475767778797A7B7C7D7E1B
:10905C00200048656C6C6F20576F726C642100485F
:10906C00656C6C6F20452D506170657221004865F0
:10907C006C6C6F2041726475696E6F21000000008A
:10908C0090930B0098900B00207E120000000000C3
:10909C000B0001000000030B0B04F6000500070594
:1090AC000B02F6000A00080C0B01F6001600070E66
:1090BC000B02F5002300070B0B02F6002D00080A2B
:1090CC000B01F700370003050B04F6003900040E02
:1090DC000B05F6004000040E0B02F60047000807D3
:1090EC000B02F6004E0008090B02F80057000305AE
:1090FC000B03FF00590009020B01FB005C0002028C
:10910C000B04FF005D00070F0B02F4006B00070C53
:10911C000B02F5007600070B0B02F6008000080C22
:10912C000B01F5008C00080C0B02F5009800070AE7
:10913C000B02F700A100090B0B01F600AE00080CA6
:10914C000B02F500BA00080B0B01F600C500070C6A
:10915C000B02F500D000080C0B02F500DC00020835
:10916C000B04F900DE00030B0B03F900E300090804
:10917C000B01F800EC0009060B01F900F3000908DB
:10918C000B01F800FC00080B0B02F6000701090F9D
:10919C000B01F50018010B0B0B00F60028010A0B54
:1091AC000B01F6003601090B0B01F60043010A0B0B
:1091BC000B00F6005101090B0B01F6005E01090BC7
:1091CC000B01F6006B010A0B0B01F6007901090B80
:1091DC000B01F6008601060B0B03F6008F010A0B40
:1091EC000B01F6009D010A0B0B01F600AB01090BFC
:1091FC000B01F600B8010B0B0B00F600C8010B0BB2
:10920C000B00F600D8010B0B0B00F600E801090B64
:10921C000B01F600F5010B0E0B00F6000902090B11
:10922C000B01F6001602090B0B01F6002302090BC9
:10923C000B01F60030020B0B0B00F60040020B0B7F
:10924C000B00F60050020A0B0B00F6005E020A0B34
:10925C000B00F6006C020A0B0B00F6007A02080BEE
:10926C000B02F6008502040E0B05F6008C02070FAC
:10927C000B02F4009A02040E0B02F600A102070680
:10928C000B02F500A7020B020B000300AA0203035A
:10929C000B03F500AC0209080B01F900B5020A0B2F
:1092AC000B00F600C30209080B01F900CC020A0BF3
:1092BC000B01F600DA0209080B01F900E302080BB6
:1092CC000B02F600EE02090C0B01F900FC02090B73
:1092DC000B01F6000903080B0B02F6001403060F32
:1092EC000B02F6002003090B0B01F6002D03080BF3
:1092FC000B02F60038030B080B00F90043030908B6
:10930C000B01F9004C0309080B01F90055030B0C78
:10931C000B00F90066030B0C0B00F900770309082E
:10932C000B01F900800308080B02F9008803080BF5
:10933C000B01F600930309080B01F9009C030B08C1
:10934C000B00F900A7030B080B00F900B203090886
:10935C000B01F900BB030A0C0B00F900CA03070848
:10936C000B02F900D103040E0B03F600D803020E16
:10937C000B05F600DC03040E0B04F600E3030904F2
:10938C000B01FA00FFFFD21F80EC89122440363605
:10939C00367F7F36FFFF3C3C3C0018FFFE3C1F1F16
:1093AC0083468DF0C1830061224486673711224CBD
:1093BC00703C7E6060307BDFCEFF7FC9243766CC8B
:1093CC00CCCC6631CE6633333366C81818FFFF3CFD
:1093DC003C66181818FFFF181818186B48FFFFC0C8
:1093EC00F0020C1860C3060C3061830C1820003896
:1093FC00FBBE3C78F1E3C7DDF1C038F360C18306F6
:10940C000C18FDF83CFEC70303060C1870E3FFFFB5
:10941C007CFE0303031E1E070303FE7C1C38B16491
:10942C00D9BFFF3E7C7E3F180FC7F31C0603C3FF5A
:10943C009F800F3F306060DCFEE3C3637E3CFFFF28
:10944C00C3030606060C0C0C1838FB1E3C6F9F63FE
:10945C00C78FF1C03C7EE6C3C3E77F3B060EFCF032
:10946C00F00F6C001AD2000183870E0F80E01C03F2
:10947C00FFFFC0000FFFFCC0780F01E0F9E3C180D3
:10948C007CFEC7030E1C00000030301E1F1CDC6C61
:10949C00767B6DB6DB6FF3FC0633F8783C07C0388F
:1094AC000581B0360FE1FC71DF7FEF80FF3FE619DD
:1094BC00867F1FE61D8360FFFFF01FBFD8F83C06B8
:1094CC0003018061BFC7C0FE3FE6198360D8360D2B
:1094DC008361BFEFE0FFFFD86DB7C3E1B0C361FF9D
:1094EC00FFE0FFFFD86DB7C3E1B0C0607C3E001F4A
:1094FC009FE61B06C0300C7F1FE19FE3F0F7FBD803
:10950C00CC6633F9FCC6637BFDE0FFF30C30C30C77
:10951C0033FFC01FC7F0300C0300CC330CC73F87A0
:10952C00C0F7BDE661B0781F06E198633CFF3CFCD8
:10953C007E0C06030180C66331FFFFE0E0FE3DC7F1
:10954C003DE7BCD79BB37660DE3FC780E1FE3DE3D1
:10955C003C66CCDD99B31E63DE3BC3001F07F1C72D
:10956C00707C0780F01F0771C7F07C00FE7F986C41
:10957C00361BF9F8C0607C3E001F07F1C7707C07F2
:10958C0080F01F0771C7F07C0C33FE7F80FC7F18C6
:10959C00CC6673F1F0CC637DFE603FBFF0780F03B7
:1095AC00F83F83C3FFBF80FFFFF67B3D98C0603060
:1095BC00183F1F80F1FE3D8330660CC19833066066
:1095CC00C7F07C00FBFF7DC318C3183606C0500ED5
:1095DC0001C01000FBFEF60D936EDBB7ADEE7B8E7B
:1095EC00E318F3FCF738FC1E0301E0CC73BCFF3C22
:1095FC00F3FCF738CC1E0780C0300C0FC3F0FEFE16
:10960C00C6CC18183063C3FFFFFFCCCCCCCCCCFF3E
:10961C00010306060C0C181830306060C080FF3354
:10962C0033333333FF1071E36C7040FFFFFC8880E1
:10963C007E3F8FCFEE361BFEFFE0380601BC7F9CD1
:10964C00760D8371FFEEF03FBFF8783C0705FE7E88
:10965C000380E018F67FB8EC1B06E39FF3FC3E3F5B
:10966C00B0FFFFFE01FE7E1F3F307E7E303030307B
:10967C00FEFE3FBFF9D86C3739FC7603018FC7C0AB
:10968C00E070180DC7F3998CC6637BFDE0181800C9
:10969C00787818181818FFFF18603FFC30C30C308E
:1096AC00C30FFF80E070180DE6F3E1E0F86E73F97C
:1096BC00E0787818181818181818FFFFFD9FF99BF8
:1096CC0033666CCDBDFFBFEE7F98CC66331BDFEFEE
:1096DC003E3FB8F83C1F1DFC7CEF1FF9C3B03606AB
:1096EC00E1DFF378600C03E07C001EEFFF87606C19
:1096FC000DC39FF0F600C0180F81F077BFCF0603A3
:10970C000183F9FC3FFFC3FC3FC3FFFC606060FEBC
:10971C00FE606060617F3EE77398CC663319FE7F14
:10972C00FBFF7CC618C1B036038070F1FE3DBB3721
:10973C0063F8770EE18CF7FBCD8383C3BBDFEFF3CC
:10974C00FCF618CC330781E0300C060FC3F0FFFF9A
:10975C0030C30C7FFF376666CC666673FFFFFFF085
:10976C00CE6666336666EC707CF3C0C0FFFFFFFF0D
:10977C00FFFFFFFFFFFFFFFFFFFFFFFFFFFFFFFFED
:10978C00FFFFFFFFFFFFFFFFFFFFFFFFFFFFFFFFDD
:10979C00FFFFFFFFFFFFFFFFFFFFFFFFFFFFFFFFCD
:1097AC00FFFFFFFFFFFFFFFFFFFFFFFFFFFFFFFFBD
:109BAC00FFFFFFFFFFFFFFFFFFFFCFFFFFC3FFFF25
:109BBC00FFFFFFFFFFFFFFFFFFFFFFFFFFFFFFFFA9
:109BCC00FFFFFFFFFFFFFFFFFFFFFFFFFFFFFFFF99
:109BDC00FFFFFFFFFFFFFFFFFFFFFFF001FFFC0098
:109BEC00007FFFFFFFFFFFFFFFFFFFFFFFFFFFFFF8
:109BFC00FFFFFFFFFFFFFFFFFFFFFFFFFFFFFFFF69
:109C0C00FFFFFFFFFFFFFFFFFFFFFFFFFE00003F17
:109C1C00E0000007FFFFFFFFFFFFFFFFFFFFFFFF5D
:109C2C00FFFFFFFFFFFFFFFFFFFFFFFFFFFFFFFF38
:109C3C00FFFFFFFFFFFFFFFFFFFFFFFFFFFFF00036
:109C4C00000000000000FFFFFFFFFFFFFFFFFFFF12
:109C5C00FFFFFFFFFFFFFFFFFFFFFFFFFFFFFFFF08
:109C6C00FFFFFFFFFFFFFFFFFFFFFFFFFFFFFFFFF8
:109C7C00C0000000000000000FFFFFFFFFFFFFFF10
:109C8C00FFFFFFFFFFFFFFFFFFFFFFFFFFFFFFFFD8
:109C9C00FFFFFFFFFFFFFFFFFFFFFFFFFFFFFFFFC8
:109CAC00FFFE000000000000000000FFFFFFFFFFB0
:109CBC00FDFFFFFFFFFFFFFFFFFFFFFFFFFFFFFFAA
:109CCC00FFC0FFFFFFFFFFFFFFFFFFFFFFFFFFFFD7
:109CDC00FFFFFFF00000000000000000000FFFFF7E
:109CEC00FFFC0000FFFFFFFFF80FFFFFFC00000070
:109CFC00FFFF80000003FFFC003FFFFE00007FFF22
:109D0C00FFFFFFFFFE00000000000000000000004D
:109D1C000FFF00000000FFFFFFF00001FFFF00003D
:109D2C0000000000000000000000000003C0000064
:109D3C00007FFFFFFFFE000000000000000000009D
:109D4C00000000000000000003FF80000000000085
:109D5C0000000000000000000000000000000000F7
:109D6C0000000000000000000000000000000000E7
:109D7C0000000000000000000000000000000000D7
:109D8C0000000000000000000000000000000000C7
:109D9C0000000000000000000000000000000000B7
:109DAC0000000000000000000000000000000000A7
:109DBC000000000000000000000000000000000097
:109DCC000000000000000000000000000000000087
:109DDC000000000000000000000000000000000077
:109DEC000000000000000000000000000000000067
:109DFC000000000000000000000000000000000057
:109E0C000000000000000000000000000000000046
:109E1C000000000000000000000000000000000036
:109E2C000000000000000000000000000000000026
:109E3C000000000000000000000000000000000016
:109E4C000000FFFFFFFFFFFFFFFFFFFFFFFFFFFF14
:109E5C00FFFFFFFFFFFFFFFFFFFFFFFFFFFFFFFF06
:109E6C00FFFFFFFFFFFFFFFFFFFFFFFFFFFFFFFFF6
:109E7C00FFFFFFFFFFFFFFFFFFFFFFFFFFFFFFFFE6
:109E8C00FFFFFFFFFFFFFFFFFFFFFFFFFFFFFFFFD6
:10A28C00FFFFFFFFFFFFFFFFFFFFFFFFFFFF0000D0
:10A29C0000FFFFFFFFFFFFFFFFFFFFFFFFFFFFFFC1
:10A2AC00FFFFFFFFFFFFFFFFFFFFFFFFFFFFFFFFB2
